:020000040800F2
:100000000000011095C0010831610108516101082B
:100010006D61010889610108A56101080000000007
:10002000000000000000000000000000C1610108A5
:10003000E161010800000000F161010801620108AE
:10004000DDC00108DDC00108DDC00108DDC0010818
:10005000DDC00108DDC00108DDC00108DDC0010808
:10006000DDC00108DDC00108DDC00108DDC00108F8
:10007000DDC00108DDC00108DDC00108DDC00108E8
:10008000DDC00108DDC00108DDC00108DDC00108D8
:10009000DDC00108DDC00108DDC00108DDC00108C8
:1000A000DDC00108DDC00108DDC00108DDC00108B8
:1000B00011620108DDC00108DDC00108DDC00108D2
:1000C000DDC00108DDC00108DDC00108DDC0010898
:1000D000DDC0010825620108DDC00108DDC001089E
:1000E00099620108DDC00108DDC00108DDC001081A
:1000F0003962010851620108DDC00108DDC0010854
:10010000DDC00108DDC00108DDC00108DDC0010857
:10011000DDC00108DDC00108DDC00108DDC0010847
:10012000DDC00108DDC001086D620108DDC0010805
:10013000DDC00108DDC00108DDC00108DDC0010827
:10014000DDC00108DDC00108DDC00108DDC0010817
:10015000DDC00108DDC0010881620108DDC00108C1
:10016000DDC00108DDC00108DDC00108DDC00108F7
:10017000DDC00108DDC00108DDC00108DDC00108E7
:08018000DDC00108DDC001082B
:1001C00010B5054C237833B9044B13B10448AFF391
:1001D00000800123237010BD600900200000000092
:1001E000A07A0208084B10B51BB108490848AFF3C4
:1001F00000800848036803B910BD074B002BFBD0F3
:10020000BDE81040184700BF00000000640900204E
:10021000A07A02085C09002000000000154B002BAA
:1002200008BF134B9D46A3F5803A00218B460F462D
:100230001348144A121A1DF0E7FC0F4B002B00D094
:1002400098470E4B002B00D0984700200021040057
:100250000D000D48002802D00C4820F083FF1DF04F
:1002600079FC2000290015F0EDFC1DF063FC00BFB7
:100270000000080000000000000000000000000076
:1002800060090020C878012065110208792402085D
:1002900080B586B002AF0346FB8007F10F02B91D9F
:1002A0000A230093012304480DF05CFBFB7B9BB207
:1002B00018461037BD4680BDFCED002080B586B0E5
:1002C00000AFF860B9601346FB8000237B6111200A
:1002D00000F07CF800224FF48071184804F042FFCF
:1002E000FB6843F04003FB60FB689BB21846FFF7D6
:1002F000CFFFFB881846FFF7CBFF00237B610BE0A5
:100300007B699B00BA6813441B689BB21846FFF7D1
:10031000BFFF7B6901337B61FA887B699A42EFDC1E
:1003200001224FF48071054804F01CFF102000F0FA
:100330004DF800BF1837BD4680BD00BF0018024011
:1003400080B584B000AF78600B467B800023FB60F3
:10035000112000F03BF8112000F038F800224FF493
:100360008071184804F0FEFE7B6843F020037B6038
:100370007B689BB21846FFF78BFF7B881846FFF718
:1003800087FF0023FB600BE00020FFF781FF03469F
:1003900019460D4AFB6842F82310FB680133FB60E5
:1003A0007A88FB689A42EFDC01224FF4807105489D
:1003B00004F0D8FE102000F009F8034B184610375F
:1003C000BD4680BD00180240F4EB002080B582B02D
:1003D00000AF78600A2002F069FA00224FF48071C1
:1003E0000A4804F0BFFE7B689BB21846FFF750FF37
:1003F00001224FF48071054804F0B4FE0A2002F097
:1004000055FA00BF0837BD4680BD00BF0018024046
:1004100080B500AF00224FF48071284804F0A2FE9E
:10042000FF20FFF735FF03461B041A46244B1A60D2
:10043000FF20FFF72DFF03461B021A46204B1B68C7
:1004400013431F4A1360FF20FFF722FF03461A469B
:100450001B4B1B6813431A4A136000F035F8024621
:10046000184B1A6000F030F80246164B5A6000F044
:100470002BF80246134B9A6000F026F80246114B07
:10048000DA6000F021F802460E4B1A6100F01CF809
:1004900002460C4B5A6100F017F80246094B9A616C
:1004A00000F012F80246074BDA6101224FF4807126
:1004B000024804F057FE034B184680BD0018024066
:1004C0007C0900208009002080B500AFFF20FFF7E5
:1004D000DFFE0346DAB2104BDA70FF20FFF7D8FEDA
:1004E0000346DAB20C4B9A70FF20FFF7D1FE0346A9
:1004F000DAB2094B5A70084BDB785BB2002B03DA97
:10050000054BFF221A7002E0034B00221A70024BC7
:100510001B68184680BD00BFA009002080B598B0B8
:1005200000AF0023BB6500F013F9272016F0F8FE9A
:1005300003467B61282016F0F3FE0346BB612920A9
:1005400016F0EEFE0346FB612A2016F0E9FE034694
:100550003B622B2016F0E4FE03467B622C2016F053
:10056000DFFE0346BB622D2016F0DAFE0346FB6277
:100570002E2016F0D5FE03463B632F2016F0D0FE4A
:1005800003467B633A2016F0CBFE0346BB633B2059
:1005900016F0C6FE0346FB633C2016F0C1FE034680
:1005A0003B643D2016F0BCFE03467B643E2016F003
:1005B000B7FE0346BB643F2016F0B2FE0346FB6461
:1005C000402016F0ADFE03463B65412016F0A8FE24
:1005D00003467B65422016F0A3FE03467B60432062
:1005E00016F09EFE0346BB60442016F099FE0346BB
:1005F000FB60452016F094FE03463B6107F11403AF
:10060000112219460120FFF759FE11210120FFF7A1
:1006100097FEF8650BE007F114031122194601203B
:10062000FFF74CFE11210120FFF78AFEF86507F164
:10063000140311221946F86D00F02EF80346002B22
:10064000E9D13B1D042219461420FFF737FE04218F
:100650001420FFF775FEF8650AE03B1D04221946D9
:100660001420FFF72BFE04211420FFF769FEF86524
:100670003B1D04221946F86D00F00EF80346002BCE
:10068000EBD1642002F012F9282002F023FC0023B1
:1006900018466037BD4680BD90B5A3B002AFF86084
:1006A000B9601346FB800023FB672FE0FB6F9B00C4
:1006B000FA6813441A68FB6F9B00B9680B441B6807
:1006C0009A4220D0FC88FB6F9B00FA6813441B6899
:1006D000FA6F9200B9680A44126807F11400019297
:1006E00000932346FA6F0E491DF054FCB867BB6FA8
:1006F0009AB207F114014FF47A730A4814F0E6F83D
:100700004FF0FF3307E0FB6F0133FB67FA88FB6FA5
:100710009A42CBDC002318468437BD4690BD00BF0B
:1007200040620208D0F1002080B59CB000AF786034
:10073000396007F108003B687A6864211DF0BAFB54
:10074000034687F86F3000BF7037BD4680BD00BFDD
:1007500080B500AF00224FF48061084804F002FD2C
:10076000642002F0A3F801224FF48061034804F0F2
:10077000F9FC642002F09AF800BF80BD0018024026
:1007800080B500AF04481DF09DFA18210020FFF746
:10079000D7FD00BF80BD00BF6462020880B582B093
:1007A00000AF00237B60334A324B1B6B43F4800362
:1007B0001363304B1B6B03F480037B607B68002367
:1007C0003B602C4A2B4B1B6B43F400131363294BE8
:1007D0001B6B03F400133B603B68274B274A1A60EE
:1007E000254B00225A60244B80229A60224B4FF402
:1007F0000072DA60204B4FF480621A611E4B0022B7
:100800005A611D4B00229A611B4B0022DA611A4B80
:1008100000221A62184B04225A62174B03229A6272
:10082000154B0022DA62144B00221A6300220021C9
:100830000C2002F033FB0C2002F04CFB00220021C4
:100840000E2002F02BFB0E2002F044FB00220021C0
:100850003A2002F023FB3A2002F03CFB0022002168
:10086000462002F01BFB462002F034FB00BF083795
:10087000BD4680BD003802406CEC00201064024090
:1008800080B58EB000AF00233B62B04AAF4B1B6B0C
:1008900043F020031363AD4B1B6B03F020033B625B
:1008A0003B6A0023FB61A94AA84B1B6B43F0800302
:1008B0001363A64B1B6B03F08003FB61FB690023F2
:1008C000BB61A24AA14B1B6B43F0040313639F4B14
:1008D0001B6B03F00403BB61BB6900237B619B4A74
:1008E0009A4B1B6B43F001031363984B1B6B03F094
:1008F00001037B617B6900233B61944A934B1B6B33
:1009000043F040031363914B1B6B03F040033B61C7
:100910003B690023FB608D4A8C4B1B6B43F010033B
:1009200013638A4B1B6B03F01003FB60FB6800230F
:10093000BB60864A854B1B6B43F002031363834BFA
:100940001B6B03F00203BB60BB6800237B607F4A24
:100950007E4B1B6B43F0080313637C4B1B6B03F054
:1009600008037B607B6800233B60784A774B1B6BF6
:1009700043F480731363754B1B6B03F480733B600C
:100980003B6800224FF40151714804F0EBFB002258
:100990003721704804F0E6FB002210216E4804F075
:1009A000E1FB00224FF478616C4804F0DBFB00228D
:1009B0004FF480516A4804F0D5FB00224FF47F4188
:1009C000684804F0CFFB00224FF44071664804F001
:1009D000C9FB0022C021654804F0C4FB4FF4015359
:1009E0007B620123BB620023FB6203233B6307F1AD
:1009F00024031946564804F0E7F84FF444437B6259
:100A00000023BB620023FB6207F124031946504810
:100A100004F0DAF837237B620123BB620023FB6218
:100A200003233B6307F1240319464A4804F0CCF83A
:100A300010237B620123BB620023FB6203233B6321
:100A400007F124031946444804F0BEF803237B62EF
:100A50000023BB620023FB6207F1240319464248CE
:100A600004F0B2F84FF478637B620123BB62002389
:100A7000FB6203233B6307F124031946374804F064
:100A8000A3F84FF480537B620123BB620023FB6217
:100A900003233B6307F124031946314804F094F81B
:100AA0004FF47F437B620123BB620023FB6203237D
:100AB0003B6307F1240319462A4804F085F84FF4F4
:100AC000E0637B620123BB620023FB6203233B6381
:100AD00007F124031946244804F076F830237B629A
:100AE0000023BB620023FB6207F1240319461F4861
:100AF00004F06AF8C0237B620123BB620023FB621F
:100B000003233B6307F124031946184804F05CF8FB
:100B100001237B62164BBB620023FB624FF4006330
:100B20007B62144BBB620123FB6203233B6307F12F
:100B3000240319460C4804F047F80022002128201D
:100B400002F0ACF900BF3837BD4680BD0038024026
:100B50000014024000080240000002400010024061
:100B600000040240000C0240001802400020024035
:100B7000000031100000211080B500AF124B134A65
:100B80001A60114B124A5A600F4B00229A600E4BAA
:100B90000022DA600C4B4FF480421A610A4B0022AB
:100BA0005A61094B00229A61074B0022DA61064B19
:100BB00000221A62044804F04DFB0346002B01D0CA
:100BC00015F04CF900BF80BD08ED00200058004032
:100BD000A086010080B500AF124B134A1A60114B7A
:100BE000124A5A600F4B00229A600E4B0022DA60C4
:100BF0000C4B4FF480421A610A4B00225A61094B98
:100C000000229A61074B0022DA61064B00221A6229
:100C1000044804F01FFB0346002B01D015F01EF919
:100C200000BF80BDC4EC0020005C0040A086010035
:100C300080B58AB000AF78607B681B68244A934215
:100C40001ED103237B611223BB610123FB610323BC
:100C50003B6204237B6207F1140319461D4803F02D
:100C6000B3FF00233B611C4A1B4B1B6C43F4800306
:100C70001364194B1B6C03F480033B613B6923E055
:100C80007B681B68154A93421ED14FF4C0737B6189
:100C90001223BB610123FB6103233B6204237B62BC
:100CA00007F1140319460E4803F08EFF0023FB6082
:100CB000094A094B1B6C43F400031364064B1B6C7D
:100CC00003F40003FB60FB6800BF2837BD4680BD0E
:100CD000005800400014024000380240005C004010
:100CE000001C024080B582B000AF78607B681B6852
:100CF000104A93420AD1104A0F4B1B6C23F4800315
:100D0000136403210D4804F009F90FE07B681B68A8
:100D10000B4A93420AD1084A074B1B6C23F4000389
:100D200013644FF4C071074804F0F8F800BF0837A7
:100D3000BD4680BD0058004000380240001402400B
:100D4000005C0040001C024080B500AF174B184A01
:100D50001A60164B4FF482725A60144B00229A604C
:100D6000124B0022DA60114B00221A610F4B002255
:100D70005A610E4B4FF400729A610C4B0022DA61FB
:100D80000A4B00221A62094B00225A62074B0022CA
:100D90009A62064B0A22DA6204480CF09BFA034678
:100DA000002B01D015F05AF800BF80BDACEE00203A
:100DB0000030014080B500AF174B184A1A60164B3F
:100DC0004FF482725A60144B00229A60124B002238
:100DD000DA60114B00221A610F4B00225A610E4B50
:100DE0004FF400729A610C4B0022DA610A4B002228
:100DF0001A62094B00225A62074B00229A62064B84
:100E00000A22DA6204480CF065FA0346002B01D08E
:100E100015F024F800BF80BD4CED002000380040E4
:100E200080B500AF174B184A1A60164B4FF4827208
:100E30005A60144B00229A60124B0022DA60114B68
:100E400000221A610F4B00225A610E4B4FF40072C0
:100E50009A610C4B0022DA610A4B00221A62094B9C
:100E600000225A62074B00229A62064B0A22DA627B
:100E700004480CF02FFA0346002B01D014F0EEFFCB
:100E800000BF80BD54EE00200034014080B500AFAB
:100E9000174B184A1A60164B4FF482725A60144B63
:100EA00000229A60124B0022DA60114B00221A6174
:100EB0000F4B00225A610E4B4FF400729A610C4B9B
:100EC0000022DA610A4B00221A62094B00225A62A0
:100ED000074B00229A62064B0A22DA6204480CF0A1
:100EE000F9F90346002B01D014F0B8FF00BF80BD14
:100EF000A4ED00200050014080B500AF174B184A08
:100F00001A60164B4FF482725A60144B00229A609A
:100F1000124B0022DA60114B00221A610F4B0122A2
:100F20005A610E4B4FF400729A610C4B1022DA6139
:100F30000A4B00221A62094B00225A62074B002218
:100F40009A62064B0A22DA6204480CF0C3F903469F
:100F5000002B01D014F082FF00BF80BDFCED00200B
:100F60000054014080B58CB000AF78607B681B688E
:100F70005C4A93421ED10023BB615B4A5A4B5B6CB7
:100F800043F480535364584B5B6C03F48053BB6150
:100F9000BB69E023FB6102233B6200237B620323E6
:100FA000BB620523FB6207F11C0319464F4803F09F
:100FB0000BFE92E07B681B684D4A93421FD10023D1
:100FC0007B61494A484B1B6C43F480431364464B96
:100FD0001B6C03F480437B617B694FF46043FB61CE
:100FE00002233B6200237B620323BB620523FB6277
:100FF00007F11C0319463F4803F0E6FD6DE07B68EE
:101000001B683D4A93421FD100233B61364A364B51
:101010005B6C43F400535364334B5B6C03F4005339
:101020003B613B694FF4E043FB6102233B620023D9
:101030007B620323BB620523FB6207F11C03194695
:101040002E4803F0C1FD48E07B681B682C4A9342A0
:101050001FD10023FB60244A234B5B6C43F48013B5
:101060005364214B5B6C03F48013FB60FB684FF40B
:101070006073FB6102233B6200237B620323BB623C
:101080000523FB6207F11C0319461E4803F09CFD73
:1010900023E07B681B681C4A93421ED10023BB607F
:1010A000114A114B5B6C43F4001353640E4B5B6CA1
:1010B00003F40013BB60BB684FF4E043FB61022301
:1010C0003B6200237B620323BB620523FB6207F1C3
:1010D0001C0319460D4803F077FD00BF3037BD46AD
:1010E00080BD00BF003001400038024000000240D7
:1010F000003800400004024000340140001002406B
:101100000050014000140240005401400018024009
:1011100080B582B000AF78607B681B682A4A934232
:101120000AD12A4A294B5B6C23F480535364E02193
:10113000274803F0F3FE42E07B681B68254A934290
:101140000BD1224A214B1B6C23F4804313644FF4D0
:101150006041214803F0E2FE31E07B681B681F4AD2
:1011600093420BD1194A194B5B6C23F4005353641F
:101170004FF4E0411A4803F0D1FE20E07B681B6881
:10118000184A93420BD1114A104B5B6C23F4801325
:1011900053644FF46071144803F0C0FE0FE07B68A5
:1011A0001B68124A93420AD1084A084B5B6C23F42D
:1011B000001353644FF4E0410D4803F0AFFE00BF4D
:1011C0000837BD4680BD00BF0030014000380240F6
:1011D000000002400038004000040240003401409A
:1011E0000010024000500140001402400054014031
:1011F0000018024080B586B000AF1C4B4FF0804213
:101200001A601A4B49F270425A60184B00229A60D9
:10121000164B0422DA60154B00221A6113480DF0B8
:10122000F7FF0346002B01D014F018FE4FF4805353
:10123000BB6007F1080319460C4810F04BFF03464A
:10124000002B01D014F00AFE00233B6000237B60DA
:101250003B461946054813F08BF80346002B01D096
:1012600014F0FCFD00BF1837BD4680BD7CEF0020A8
:1012700080B582B000AF134B134A1A60114B0022A5
:101280005A60104B00229A600E4B0022DA600D4823
:101290000DF0BEFF0346002B01D014F0DFFD00234C
:1012A0003B6000237B603B461946064813F060F81C
:1012B0000346002B01D014F0D1FD00BF0837BD4616
:1012C00080BD00BF40EF00200010004080B582B01C
:1012D00000AF134B134A1A60114B0A225A60104B8D
:1012E00000229A600E4B4FF47A72DA600C480DF0CF
:1012F0008FFF0346002B01D014F0B0FD00233B60AC
:1013000000237B603B461946054813F031F803463D
:10131000002B01D014F0A2FD00BF0837BD4680BDF0
:10132000F4EF00200014004080B500AF0C4B0D4AD4
:101330001A600B4B48F666425A60094B00229A60CD
:10134000074B0422DA60064B00221A6104480DF0B4
:101350005FFF0346002B01D014F080FD00BF80BD6D
:1013600004EF0020001C004080B500AF0D4B0E4A7A
:101370001A600C4B48F666425A600A4B00229A608B
:10138000084B4FF47A72DA60064B00221A61054866
:101390000DF03EFF0346002B01D014F05FFD00BFAF
:1013A00080BD00BFB8EF00200020004080B588B0AD
:1013B00000AF78607B681B68B3F1804F16D10023C3
:1013C000FB61404A3F4B1B6C43F0010313643D4BF0
:1013D0001B6C03F00103FB61FB69002200211C2050
:1013E00001F05CFD1C2001F075FD66E07B681B6868
:1013F000354A93420ED10023BB61324A314B1B6CFC
:1014000043F0100313642F4B1B6C03F01003BB61FC
:10141000BB6952E07B681B682C4A934216D10023BB
:101420007B61284A274B1B6C43F020031364254B38
:101430001B6C03F020037B617B69002200213720B5
:1014400001F02CFD372001F045FD36E07B681B687C
:101450001F4A934216D100233B611A4A194B1B6C59
:1014600043F080031364174B1B6C03F080033B6154
:101470003B69002200212C2001F010FD2C2001F0FE
:1014800029FD1AE07B681B68124A934215D100239C
:10149000FB600C4A0B4B1B6C43F480731364094BC9
:1014A0001B6C03F48073FB60FB68002200212D207D
:1014B00001F0F4FC2D2001F00DFD00BF2037BD46EA
:1014C00080BD00BF00380240001000400014004002
:1014D000001C00400020004080B582B000AF786062
:1014E0007B681B68B3F1804F09D1234A224B1B6CE8
:1014F00023F0010313641C2001F0FAFC37E07B6841
:101500001B681E4A934206D11B4A1B4B1B6C23F0DF
:10151000100313642BE07B681B68194A934209D1BE
:10152000154A154B1B6C23F020031364372001F080
:10153000DFFC1CE07B681B68124A934209D10E4A0B
:101540000D4B1B6C23F0800313642C2001F0D0FCA6
:101550000DE07B681B680C4A934208D1064A064B93
:101560001B6C23F4807313642D2001F0C1FC00BFB9
:101570000837BD4680BD00BF003802400010004063
:1015800000140040001C00400020004080B500AF67
:10159000114B124A1A60104B4FF4E1225A600E4B65
:1015A00000229A600C4B0022DA600B4B00221A6179
:1015B000094B0C225A61084B00229A61064B00220B
:1015C000DA61054812F0D0FF0346002B01D014F079
:1015D00045FC00BF80BD00BFD0F1002000100140DD
:1015E00080B500AF114B124A1A60104B4FF4E13234
:1015F0005A600E4B00229A600C4B0022DA600B4BB3
:1016000000221A61094B0C225A61084B00229A6190
:10161000064B0022DA61054812F0A6FF0346002BB4
:1016200001D014F01BFC00BF80BD00BF10F20020F1
:101630000044004080B500AF114B124A1A60104BB5
:101640004FF4E1225A600E4B00229A600C4B0022AC
:10165000DA600B4B00221A61094B0C225A61084BCD
:1016600000229A61064B0022DA61054812F07CFFE5
:101670000346002B01D014F0F1FB00BF80BD00BF7A
:1016800088F000200048004080B58AB000AF786044
:101690007B681B68844A934254D100233B61834A90
:1016A000824B5B6C43F010035364804B5B6C03F024
:1016B00010033B613B694FF4C0637B610223BB6154
:1016C0000123FB6103233B6207237B6207F11403C1
:1016D0001946774803F078FA764B774A1A60754BCB
:1016E0004FF000625A60734B00229A60714B0022E7
:1016F000DA60704B00221A616E4B00225A616D4B0A
:1017000000229A616B4B0022DA616A4B00221A6256
:10171000684B00225A62674801F0D2FC0346002B56
:1017200001D014F09BFB7B68624A5A63614A7B6874
:10173000936300220021252001F0B0FB252001F059
:10174000C9FBACE07B681B685C4A93421ED1002356
:10175000FB60564A554B1B6C43F400331364534BE8
:101760001B6C03F40033FB60FB6860237B61022386
:10177000BB610123FB6103233B6207237B6207F10B
:10178000140319464E4803F01FFA88E07B681B6873
:101790004C4A934240F083800023BB60434A434B52
:1017A0001B6C43F480231364404B1B6C03F48023B5
:1017B000BB60BB684FF440637B610223BB610123C4
:1017C000FB6103233B6207237B6207F11403194685
:1017D0003D4803F0F9F93D4B3D4A1A603B4B4FF051
:1017E00000625A60394B00229A60384B0022DA605E
:1017F000364B4FF480621A61344B00225A61334BEE
:1018000000229A61314B0022DA61304B00221A62C9
:101810002E4B00225A622D4801F052FC0346002B49
:1018200001D014F01BFB7B68284A5A63274A7B6867
:101830009363284B284A1A60264B4FF000625A6087
:10184000244B40229A60234B0022DA60214B4FF454
:1018500080621A611F4B00225A611E4B00229A615E
:101860001C4B0022DA611B4B00221A62194B00222A
:101870005A62184801F024FC0346002B01D014F0F2
:10188000EDFA7B68134A1A63124A7B68936300225D
:101890000021272001F002FB272001F01BFB00BFE5
:1018A0002837BD4680BD00BF00100140003802400F
:1018B0000000024078F100204064024000440040F3
:1018C000000C0240004800400004024030F00020BC
:1018D00028600240C8F000205860024080B582B005
:1018E00000AF78607B681B68264A934218D1264A6D
:1018F000254B5B6C23F0100353644FF4C061234805
:1019000003F00CFB7B685B6B184601F045FC7B68C1
:101910001B6B184601F040FC252001F0E9FA2CE091
:101920007B681B681A4A93420AD1174A164B1B6CF4
:1019300023F4003313646021164803F0EFFA1CE02F
:101940007B681B68144A934217D10F4A0E4B1B6CDD
:1019500023F4802313644FF44061104803F0DEFA4F
:101960007B685B6B184601F017FC7B681B6B1846A5
:1019700001F012FC272001F0BBFA00BF0837BD467A
:1019800080BD00BF0010014000380240000002404E
:1019900000440040000C02400048004000040240A7
:1019A00080B500AF00F080FB012000F009FB0B4880
:1019B00000F016F800F0B0FE012000F077FF0220E2
:1019C00000F0FEFA0121402000F0A0FA032000F010
:1019D000F7FA00F07BFB00BF80BD00BF490C02009E
:1019E00080B584B000AF78607B681B0CFB737B68AC
:1019F0009BB21B0ABB737B687B73204B1B78103335
:101A0000DBB21946812000F03BF80A2000F04EFFBF
:101A1000FB7B1946822000F033F8BB7B19468320FC
:101A200000F02EF87B7B1946842000F029F8002175
:101A3000852000F025F8A721862000F021F8C52197
:101A4000872000F01DF80021882000F019F80521FA
:101A5000892000F015F800218A2000F011F80221F9
:101A60008B2000F00DF8054B1B781946812000F003
:101A700007F800BF1037BD4680BD00BFA509002094
:101A800080B586B002AF03460A46FB711346BB71B0
:101A9000BB793B73FB799AB20123019307F10C03E5
:101AA000009301231A21034805F080FC00BF103782
:101AB000BD4680BD08ED002080B485B000AF034670
:101AC0000A46FB711346BB71BB79BB81FB799BB2A4
:101AD0001B029AB2BB891344BB81B7F90C30002BAF
:101AE00002DABB89FB8101E0BB89FB81B7F90E30CB
:101AF00018461437BD465DF8047B704780B584B046
:101B000000AF78608F21B020FFF7BAFF07F10C0219
:101B100001231A212D4804F0A3F90346002B4FD1CD
:101B20003B7B03F00203002B48D09621B020FFF747
:101B3000A7FF07F10C0201231A21244804F090F9B1
:101B40000346002B03D17B6802333A7B1A7097213E
:101B5000B020FFF795FF07F10C0201231A211B4863
:101B600004F07EF90346002B03D17B6803333A7BF4
:101B70001A709421B020FFF783FF07F10C020123B4
:101B80001A21124804F06CF90346002B02D13A7B6B
:101B90007B681A709521B020FFF772FF07F10C02E5
:101BA00001231A21094804F05BF90346002B03D1F5
:101BB0007B6801333A7B1A70012302E0002300E0C6
:101BC000002318461037BD4680BD00BF08ED002039
:101BD00090B58BB000AF0346B9607A60FB73002309
:101BE00087F82730A24B1A78A24B1B781344DBB23C
:101BF000503BDBB219468020FFF742FF9C4B1A781E
:101C00009C4B1B781344DBB21033DBB219468020A7
:101C1000FFF736FF964B1A78964B1B781344DBB2CE
:101C20002033DBB219468020FFF72AFF06E107F1D7
:101C300014031846FFF762FF0346002B00F0F980FB
:101C40003B7D7A7D11461846FFF736FF0346BB847D
:101C5000BB7DFA7D11461846FFF72EFF03467B84B5
:101C600097F827309B00BA68D418B7F92430B7F931
:101C7000242002FB03F2B7F92230B7F9221001FB4E
:101C800003F31344184619F015FA02460B4643ECC9
:101C9000102B1AF0A9FC53EC102B1046194619F022
:101CA000A9FC03462360B7F9223007EE903AB8EE5C
:101CB000E77AB7F9243007EE903AF8EEE77AC7EE04
:101CC000276A16EE900A19F007FA03460C4644EC10
:101CD000103B1AF005FA54EC103B1846214619F057
:101CE00089FC0346FB61B7F92430002B46DDB7F9C8
:101CF0002230002B1CDD97F827309B007A68D4181F
:101D0000D7ED077A9FED5C7A67EE877A17EE900A37
:101D100019F0E2F954A3D3E9002319F05BFB024662
:101D20000B461046194619F065FC0346236074E023
:101D300097F827309B007A68D418D7ED077A9FED83
:101D40004E7A67EE877A17EE900A19F0C5F946A326
:101D5000D3E9002319F03EFB02460B461046194614
:101D60004FF00002454B19F059F802460B46104659
:101D7000194619F03FFC034623604EE0B7F92230C4
:101D8000002B25DD97F827309B007A68D418D7ED13
:101D9000077A9FED397A67EE877A17EE900A19F085
:101DA0009BF931A3D3E9002319F014FB02460B463B
:101DB000104619464FF00002314B19F02FF8024639
:101DC0000B461046194619F015FC0346236024E023
:101DD00097F827309B007A68D418D7ED077A9FEDE3
:101DE000267A67EE877A17EE900A19F075F91EA326
:101DF000D3E9002319F0EEFA02460B4610461946C5
:101E00004FF000021E4B19F009F802460B4610462F
:101E1000194619F0EFFB03462360154B1A78154B52
:101E20001B781344DBB24033DBB219468020FFF746
:101E300027FE97F82730013387F8273097F82720B7
:101E4000FB7B9A42FFF4F3AE094B1A78094B1B78DF
:101E50001344DBB2503BDBB219468020FFF710FE83
:101E600000BF2C37BD4690BD44174154FB210940AB
:101E7000A60900200C0000200000344300807640BA
:101E80000080664090B587B000AF78600B46FB706D
:101E90004FF000034FF00004C7E904340023FB7344
:101EA00016E0FB7B9B007A6813441B68184619F008
:101EB00013F903460C461A462346D7E9040118F0E5
:101EC000ADFF03460C46C7E90434FB7B0133FB73CB
:101ED000FA7BFB789A42E4D3FB78184619F0EAF8CB
:101EE00003460C461A462346D7E9040119F072FA54
:101EF00003460C461846214619F07CFB034607EEC4
:101F0000903AB0EE670A1C37BD4690BD80B584B0EC
:101F100000AF03460A46FB711346BB71FB791846B6
:101F200000F0D6FBBB79184600F09CF8102000F0BA
:101F3000CFFB042000F096F81B4B1C4A1A600120CE
:101F400000F0B4FC1A4A1B490520FFF741FE0023AC
:101F5000FB7321E0FB7BFA7B154992000A4412686F
:101F600015499B000B441A60FB7B0F4AD2ED007AA7
:101F7000B7EE007AC7EE276AFA7B0E4992000A4450
:101F800092ED007AC6EE877A0C4A9B001344C3EDAB
:101F9000007AFB7B0133FB73FB7B042BDAD900BF98
:101FA0001037BD4680BD00BF50F200200000E7435F
:101FB0007CF2002068F2002090F2002054F2002011
:101FC00080B584B000AF0346FB71FB79032B18D8B2
:101FD000FB79002B15D0FB79C3F10803FB73FB7B66
:101FE000012202FA03F35AB2084B1B785BB2134387
:101FF0005BB2DAB2054B1A70044B1B78184600F03E
:102000009DFB00BF1037BD4680BD00BFA409002066
:1020100080B584B000AF0346FB71FB79032B1AD85F
:10202000FB79002B17D0FB79C3F10803FB73FB7B13
:10203000012202FA03F35BB2DB435AB2084B1B786E
:102040005BB213405BB2DAB2054B1A70044B1B78DB
:10205000184600F073FB00BF1037BD4680BD00BFBF
:10206000A409002080B582B000AF0346FB71FB7964
:102070000F2B12D80B4B1B7823F00F03DAB2094B4E
:102080001A70084B1A78FB791343DAB2054B1A70B1
:10209000044B1B78184600F051FB00BF0837BD46C3
:1020A00080BD00BFA409002080B500AF064B1B789F
:1020B00043F01003DAB2044B1A70034B1B78184636
:1020C00000F03CFB00BF80BDA409002080B500AF3C
:1020D000064B1B7823F01003DAB2044B1A70034B43
:1020E0001B78184600F02AFB00BF80BDA409002021
:1020F000F0B5A1B000AFF860B9607A600120FFF7D9
:1021000087FFFFF7D1FF002387F87F303DE197F885
:102110007F30062B2CD801A252F823F03921000879
:1021200041210008492100085121000859210008D7
:1021300061210008692100080A20FFF793FF1EE0D3
:102140000B20FFF78FFF1AE00C20FFF78BFF16E044
:102150000D20FFF787FF12E00E20FFF783FF0EE050
:102160000F20FFF77FFF0AE00920FFF77BFF06E063
:102170000920FFF777FF002387F87F3000BF012099
:1021800000F094FB8A4A8B490520FFF721FD0023CC
:1021900087F87E30B8E097F87E5097F87E30844A12
:1021A0009B00134493ED007A97F87E30824A9B009F
:1021B0001344D3ED007A77EE677A17EE900A18F0A1
:1021C0008BFF79A3D3E9002318F0DAFF03460C460E
:1021D000184621464FF00002784B19F0FBF80346F1
:1021E0000C46EA0007F180010A44483AC2E900348B
:1021F00097F87E3097F87E206E4992000A4492ED5F
:10220000007A97F87E206E4992000A44D2ED007A57
:1022100027EE277AF7EE006AC6EE877A9B0007F171
:10222000800213441C3BC3ED007A97F87E4097F878
:102230007E309B0007F1800213441C3BD3ED007AF3
:10224000F0EEE77A17EE900A18F046FF05460E46C4
:1022500097F87E30DB0007F180021344483B93ED92
:10226000007BB0EE470AF0EE670A1AF0F5F853EC7F
:10227000102B2846314618F083FF02460B461046C5
:10228000194619F0B7F90246A30007F180010B4483
:102290005C3B1A6097F87E4097F87E309B0007F110
:1022A000800213441C3BD3ED007AF0EEE77A17EE80
:1022B000900A18F011FF05460E4697F87E30DB00B5
:1022C00007F180021344483B93ED007BB0EE470AD0
:1022D000F0EE670A1AF028F953EC102B2846314625
:1022E00018F04EFF02460B461046194619F082F9C7
:1022F0000246A30007F180010B44703B1A6097F877
:102300007E30013387F87E3097F87E30042B7FF6DD
:1023100042AF97F87F309B00BA68D41807F12403C6
:1023200005211846FFF7AEFDB0EE407ADFED257AC5
:1023300077EE677AC4ED007A97F87F309B007A6871
:10234000D41807F1100305211846FFF79BFDF0EEA6
:10235000407AC4ED007A07F1640305211846FFF7BF
:1023600091FD87ED1E0A97F87F309B00FA681344B1
:10237000D7ED1E7A9FED137A77EEC77AC3ED007A18
:1023800097F87F30013387F87F3097F87F30062B3E
:102390007FF6BDAEFFF79AFE0120FFF711FE00BFEA
:1023A0008437BD46F0BD00BF44174154FB210940AE
:1023B0007CF2002068F2002090F20020008066404D
:1023C00054F200200000CC42F0B5A1B000AFF8609C
:1023D000B9607A600120FFF71BFEFFF765FE00235E
:1023E00087F87F3055E197F87F30062B2CD801A273
:1023F00052F823F0112400081924000821240008B1
:102400002924000831240008392400084124000848
:102410000A20FFF727FE1EE00B20FFF723FE1AE03D
:102420000C20FFF71FFE16E00D20FFF71BFE12E049
:102430000E20FFF717FE0EE00F20FFF713FE0AE055
:102440000920FFF70FFE06E00920FFF70BFE00232F
:1024500087F87F3000BF984A98490520FFF7B8FBFE
:10246000002387F87E30B8E097F87E5097F87E30EA
:10247000914A9B00134493ED007A97F87E30904A7E
:102480009B001344D3ED007A77EE677A17EE900A3B
:1024900018F022FE86A3D3E9002318F071FE03464C
:1024A0000C46184621464FF00002864B18F092FF6A
:1024B00003460C46EA0007F180010A44483AC2E9A3
:1024C000003497F87E3097F87E207C4992000A44C9
:1024D00092ED007A97F87E207B4992000A44D2ED73
:1024E000007A27EE277AF7EE006AC6EE877A9B001D
:1024F00007F1800213441C3BC3ED007A97F87E403D
:1025000097F87E309B0007F1800213441C3BD3ED0B
:10251000007AF0EEE77A17EE900A18F0DDFD054636
:102520000E4697F87E30DB0007F180021344483BEB
:1025300093ED007BB0EE470AF0EE670A19F08CFFCE
:1025400053EC102B2846314618F01AFE02460B4673
:102550001046194619F04EF80246A30007F1800113
:102560000B445C3B1A6097F87E4097F87E309B00E6
:1025700007F1800213441C3BD3ED007AF0EEE77ABA
:1025800017EE900A18F0A8FD05460E4697F87E3023
:10259000DB0007F180021344483B93ED007BB0EE73
:1025A000470AF0EE670A19F0BFFF53EC102B2846DC
:1025B000314618F0E5FD02460B461046194619F063
:1025C00019F80246A30007F180010B44703B1A6022
:1025D00097F87E30013387F87E3097F87E30042BF1
:1025E0007FF642AF97F87F305B00BA68D41807F1E6
:1025F000240305211846FFF745FCB0EE407ADFEDD5
:10260000337A77EE677AFCEEE77AC7ED007A3B889B
:102610009BB2238097F87F305B007A68D41807F16B
:10262000100305211846FFF72DFCF0EE407AFCEE72
:10263000E77AC7ED007A3B889BB2238007F16403F9
:1026400005211846FFF71EFCF0EE407AFCEEE77A13
:10265000C7ED007A3B889BB207EE903AF8EE677AB6
:10266000C7ED1E7A97F87F305B00FA681344D7ED08
:102670001E7A9FED167A77EEC77AFCEEE77AC7ED01
:10268000007A3A8892B21A8097F87F30013387F83F
:102690007F3097F87F30062B7FF6A5AEFFF716FD4B
:1026A0000120FFF78DFC00BF8437BD46F0BD00BFA1
:1026B00044174154FB2109407CF2002068F20020BD
:1026C00090F200200080664054F200200000CC42CE
:1026D00080B584B000AF0346FB71FB793B7307F113
:1026E0000C0201239821034803F016FB00BF1037AA
:1026F000BD4680BD08ED002080B582B000AF3A1D18
:1027000001239821034803F0ABFB3B7918460837B7
:10271000BD4680BD08ED002080B582B000AF00232B
:102720003B713A1D01239821034803F0F5FA00BFDD
:102730000837BD4680BD00BF08ED002080B584B0DD
:1027400000AF0346FB71FB793B7307F10C020123D9
:102750007021034803F0E0FA00BF1037BD4680BD8A
:1027600008ED002080B582B000AF3A1D0123702132
:10277000034803F075FB3B7918460837BD4680BD1A
:1027800008ED002080B500AF0E4A0E4B1B6843F4E5
:10279000007313600B4A0B4B1B6843F48063136098
:1027A000084A084B1B6843F480731360032000F051
:1027B00069FB002000F044F813F088FC0023184661
:1027C00080BD00BF003C024080B500AF134B4FF00E
:1027D000FF321A62114B00221A62104B4FF0FF3287
:1027E0005A620E4B00225A620C4B4FF0FF321A61B4
:1027F0000A4B00221A61094B4FF0FF325A61074B16
:1028000000225A61054B4FF0FF329A61034B0022C0
:102810009A6100F00DF80023184680BD0038024090
:1028200080B400AF00BFBD465DF8047B704700BFB9
:1028300080B400AF00BFBD465DF8047B704700BFA9
:1028400080B582B000AF78600AF0BEF80246094B4E
:10285000A3FB02239B09184600F05EFB0022796867
:102860004FF0FF3000F01AFB002318460837BD4632
:1028700080BD00BFD34D621080B400AF044B1B6815
:102880000133034A136000BFBD465DF8047B704707
:10289000A4F2002080B400AF034B1B681846BD466D
:1028A0005DF8047B704700BFA4F2002080B584B0BF
:1028B00000AF78600023FB60FFF7ECFFF86000BF1B
:1028C000FFF7E8FF0246FB68D21A7B689A42F7D30B
:1028D00000BF1037BD4680BD80B400AF054A054B30
:1028E0001B6823F00203136000BFBD465DF8047B44
:1028F000704700BF10E000E080B400AF054A054B10
:102900001B6843F00203136000BFBD465DF8047B03
:10291000704700BF10E000E080B400AF024B1846E3
:10292000BD465DF8047B70470004040180B400AF2D
:10293000034B1B681B0C1846BD465DF8047B7047B3
:10294000002004E080B400AF044B1B68C3F30B030A
:102950001846BD465DF8047B704700BF002004E0C8
:1029600080B400AF054A054B5B6843F00103536038
:1029700000BFBD465DF8047B704700BF002004E047
:1029800080B400AF054A054B5B6823F00103536038
:1029900000BFBD465DF8047B704700BF002004E027
:1029A00080B400AF054A054B5B6843F002035360F7
:1029B00000BFBD465DF8047B704700BF002004E007
:1029C00080B400AF054A054B5B6823F002035360F7
:1029D00000BFBD465DF8047B704700BF002004E0E7
:1029E00080B400AF054A054B5B6843F004035360B5
:1029F00000BFBD465DF8047B704700BF002004E0C7
:102A000080B400AF054A054B5B6823F004035360B4
:102A100000BFBD465DF8047B704700BF002004E0A6
:102A200080B483B000AF01237B607B6893FAA3F38B
:102A30003B603B68B3FA83F31A46064B13449B0092
:102A40001A460123136000BF0C37BD465DF8047BB6
:102A5000704700BF00C1891080B483B000AF01236C
:102A60007B607B6893FAA3F33B603B68B3FA83F324
:102A70001A46064B13449B001A460023136000BFFE
:102A80000C37BD465DF8047B704700BF00C189105C
:102A900080B483B000AF4FF480737B607B6893FA9F
:102AA000A3F33B603B68B3FA83F303F1845303F56C
:102AB0001C239B001A460123136000BF0C37BD4640
:102AC0005DF8047B704700BF80B483B000AF4FF463
:102AD00080737B607B6893FAA3F33B603B68B3FA37
:102AE00083F303F1845303F51C239B001A46002350
:102AF000136000BF0C37BD465DF8047B704700BF14
:102B000080B485B000AF78607B6803F00703FB609A
:102B10000C4BDB68BB60BA684FF6FF031340BB6029
:102B2000FB681A02BB68134343F0BF6343F40033EE
:102B3000BB60044ABB68D36000BF1437BD465DF874
:102B4000047B704700ED00E080B400AF044BDB680D
:102B500003F4E0631B0A1846BD465DF8047B70472A
:102B600000ED00E080B483B000AF0346FB7109497B
:102B700097F907305B09FA7902F01F02012000FA89
:102B800002F241F8232000BF0C37BD465DF8047BFC
:102B9000704700BF00E100E080B483B000AF03469F
:102BA000FB71094997F907305B09FA7902F01F02B6
:102BB000012000FA02F2203341F8232000BF0C3735
:102BC000BD465DF8047B704700E100E080B483B04F
:102BD00000AF0346FB710A4A97F907305B0940339F
:102BE00052F82320FB7903F01F0322FA03F303F0CA
:102BF000010318460C37BD465DF8047B704700BFE3
:102C000000E100E080B483B000AF0346FB710949E6
:102C100097F907305B09FA7902F01F02012000FAE8
:102C200002F2403341F8232000BF0C37BD465DF867
:102C3000047B704700E100E080B483B000AF03463E
:102C4000FB71094997F907305B09FA7902F01F0215
:102C5000012000FA02F2603341F8232000BF0C3754
:102C6000BD465DF8047B704700E100E080B483B0AE
:102C700000AF0346FB710A4A97F907305B098033BE
:102C800052F82320FB7903F01F0322FA03F303F029
:102C9000010318460C37BD465DF8047B704700BF42
:102CA00000E100E080B483B000AF03463960FB71FF
:102CB00097F90730002B0BDA0D49FB7903F00F036E
:102CC000043B3A68D2B21201D2B20B441A7609E040
:102CD000084997F907303A68D2B21201D2B20B44D0
:102CE00083F8002300BF0C37BD465DF8047B7047B6
:102CF00000ED00E000E100E080B483B000AF0346E7
:102D0000FB7197F90730002B0ADA0D4AFB7903F0C3
:102D10000F03043B13441B7EDBB21B09DBB208E04C
:102D2000084A97F90730134493F80033DBB21B09C4
:102D3000DBB218460C37BD465DF8047B704700BF18
:102D400000ED00E000E100E080B489B000AFF86081
:102D5000B9607A60FB6803F00703FB61FB69C3F1AC
:102D60000703042B28BF0423BB61FB690433062B34
:102D700002D9FB69033B00E000237B610122BB69B0
:102D800002FA03F35A1EBB681A407B699A4001217C
:102D90007B6901FA03F3591E7B680B401343184605
:102DA0002437BD465DF8047B704700BF80B489B00E
:102DB00000AFF860B9607A603B60BB6803F007035E
:102DC000FB61FB69C3F10703042B28BF0423BB612C
:102DD000FB690433062B02D9FB69033B00E00023A7
:102DE0007B61FA687B69DA400121BB6901FA03F370
:102DF000013B1A407B681A6001227B6902FA03F3E7
:102E00005A1EFB681A403B681A6000BF2437BD4653
:102E10005DF8047B704700BF80B400AFBFF34F8FF5
:102E20000549054BDB6803F4E062044B1343CB60B8
:102E3000BFF34F8F00BFFDE700ED00E00400FA058F
:102E400080B582B000AF78607B68013BB3F1807FD2
:102E500001D301230FE00A4A7B68013B53600F2135
:102E60004FF0FF30FFF71EFF054B00229A60044B26
:102E700007221A60002318460837BD4680BD00BFF0
:102E800010E000E080B582B000AF78607868FFF7AE
:102E900037FE00BF0837BD4680BD00BF80B586B095
:102EA00000AF0346B9607A60FB7300237B61FFF7D4
:102EB0004BFE78617A68B9687869FFF745FF02468A
:102EC00097F90F3011461846FFF7ECFE00BF183790
:102ED000BD4680BD80B582B000AF0346FB7197F957
:102EE00007301846FFF73EFE00BF0837BD4680BDDD
:102EF00080B582B000AF0346FB7197F907301846E2
:102F0000FFF74AFE00BF0837BD4680BD80B500AF61
:102F1000FFF782FF00BF80BD80B582B000AF786050
:102F20007868FFF78DFF034618460837BD4680BD19
:102F300080B483B000AF78601E4A7B685B78936092
:102F40007B681B78002B28D01A4A7B685B68D360AB
:102F500018497B681B7B1A077B68DB7A1B061A43C0
:102F60007B689B7ADB041A437B685B7B9B041A4378
:102F70007B689B7B5B041A437B68DB7B1B041A43E7
:102F80007B685B7A1B021A437B681B7A5B001343E6
:102F90007A68127813430B6105E0064B0022DA6071
:102FA000044B00221A6100BF0C37BD465DF8047B5C
:102FB000704700BF90ED00E080B500AFFFF7C4FDA3
:102FC0000346184680BD00BF80B584B000AFB9602D
:102FD0007A603B600346FB7397F90F301846FFF7A2
:102FE0008BFE3B687A68B968FFF7E0FE00BF1037D8
:102FF000BD4680BD80B582B000AF0346FB7197F936
:1030000007301846FFF7FEFD00BF0837BD4680BDFC
:1030100080B582B000AF0346FB7197F907301846C0
:10302000FFF7D4FD034618460837BD4680BD00BFF4
:1030300080B582B000AF0346FB7197F907301846A0
:10304000FFF7FAFD00BF0837BD4680BD80B582B0EE
:1030500000AF0346FB7197F907301846FFF706FEED
:10306000034618460837BD4680BD00BF80B483B014
:1030700000AF78607B68042B06D1094A084B1B68B7
:1030800043F00403136005E0054A054B1B6823F079
:103090000403136000BF0C37BD465DF8047B704726
:1030A00010E000E080B500AF00F002F800BF80BD86
:1030B00080B400AF00BFBD465DF8047B704700BF21
:1030C00080B584B000AF78600023FB607B68002B84
:1030D00001D101235AE07B68022283F835207B6806
:1030E0001B681B68FB60FA682A4B1340FB607B6817
:1030F0005A687B689B681A437B68DB681A437B6865
:103100001B691A437B685B691A437B689B691A4396
:103110007B68DB691A437B681B6A1343FA681343B5
:10312000FB607B685B6A042B07D17B68DA6A7B688B
:103130001B6B1343FA681343FB607B681B68FA68D8
:103140001A607B681B685B69FB60FB6823F0070300
:10315000FB607B685B6AFA681343FB607B685B6AB1
:10316000042B04D17B689B6AFA681343FB607B687D
:103170001B68FA685A61786800F0C4FB7B6800221B
:10318000DA647B68012283F8352000231846103763
:10319000BD4680BD3F8010F080B584B000AF786040
:1031A0007B68002B01D101233EE07B6893F835302A
:1031B000DBB2022B01D1012336E07B681B687A6801
:1031C0001268126822F001021A607B681B680022F4
:1031D0001A607B681B6800225A607B681B680022AB
:1031E0009A607B681B680022DA607B681B6800229B
:1031F0001A617B681B6821225A61786800F082FBA3
:103200000346FB607B685B6D3F229A40FB689A60D7
:103210007B680022DA647B68002283F835207B68B3
:10322000002283F83420002318461037BD4680BDA5
:1032300080B584B000AFF860B9607A603B60FB682D
:1032400093F83430012B01D102231EE0FB680122E8
:1032500083F83420FB68022283F83520FB681B6862
:10326000FA681268126822F001021A603B687A68F4
:10327000B968F86800F018FBFB681B68FA68126808
:10328000126842F001021A60002318461037BD464A
:1032900080BD00BF80B584B000AFF860B9607A60CF
:1032A0003B60FB6893F83430012B01D102232EE000
:1032B000FB68012283F83420FB68022283F8352062
:1032C000FB681B68FA681268126822F001021A6033
:1032D0003B687A68B968F86800F0E6FAFB681B6832
:1032E000FA681268126842F01E021A60FB681B68D6
:1032F000FA681268526942F080025A61FB681B68E2
:10330000FA681268126842F001021A600023184637
:103310001037BD4680BD00BF80B584B000AF786077
:103320000023FB607B681B687A681268126822F0D1
:1033300001021A60FFF7AEFAF86017E0FFF7AAFA89
:103340000246FB68D31AB3F57A7F0FD97B68DB6C32
:1033500043F020027B68DA647B68002283F8342023
:103360007B68032283F8352003230FE07B681B680A
:103370001B6803F00103002BE0D17B68002283F877
:1033800034207B68012283F835200023184610374B
:10339000BD4680BD80B58AB000AFF860B9607A6084
:1033A00000233B62FB681B6DFB61BB68002B06D1F1
:1033B000FB685B6D202202FA03F37B6205E0FB6889
:1033C0005B6D102202FA03F37B62FFF763FA386247
:1033D00079E0FB691A68FB685B6D082101FA03F369
:1033E0001340BB61FB691A68FB685B6D694901FAB0
:1033F00003F313407B61FB691A68FB685B6D6649E8
:1034000001FA03F313403B61BB69002B05D17B69D3
:10341000002B02D13B69002B36D0BB69002B0BD0AF
:10342000FB68DB6C43F00102FB68DA64FB685B6DF0
:1034300008229A40FB699A607B69002B0BD0FB68DD
:10344000DB6C43F00202FB68DA64FB685B6D514A97
:103450009A40FB699A603B69002B0BD0FB68DB6CE0
:1034600043F00402FB68DA64FB685B6D4A4A9A40E9
:10347000FB699A60FB68042283F83520FB68002210
:1034800083F83420012380E07B68B3F1FF3F1AD03A
:103490007B68002B07D0FFF7FDF902463B6AD21A82
:1034A0007B689A420FD9FB68DB6C43F02002FB6813
:1034B000DA64FB68032283F83520FB68002283F876
:1034C0003420032361E0FB691A687B6A1340002BF8
:1034D0003FF47FAFBB68002B2DD1FB685B6D3022C2
:1034E0009A40FB699A60FB681B681B6803F48023A1
:1034F000002B17D0FB681B681B6803F40023002B0C
:1035000004D1FB68112283F835200FE0FB681B68AB
:103510001B6803F40023002B08D0FB68212283F8EA
:10352000352003E0FB68112283F83520FB68002278
:1035300083F8342028E0FB685B6D10229A40FB6919
:103540009A60FB681B681B6803F48023002B17D06C
:10355000FB681B681B6803F40023002B04D1FB6885
:10356000312283F835200FE0FB681B681B6803F4E9
:103570000023002B08D0FB68412283F8352003E0AC
:10358000FB68312283F83520002318462837BD46D2
:1035900080BD00BF010080000400800080B584B0C1
:1035A00000AF78607B681B6DFB60FB681A687B6806
:1035B0005B6D082101FA03F31340002B2AD07B68CE
:1035C0001B681B6803F00403002B23D07B681B6877
:1035D0007A681268126822F004021A607B685B6DD8
:1035E00008229A40FB689A607B68DB6C43F001021A
:1035F0007B68DA647B68042283F835207B680022CC
:1036000083F834207B689B6C002B03D07B689B6C19
:1036100078689847FB681A687B685B6D934901FA84
:1036200003F31340002B2AD07B681B685B6903F00F
:103630008003002B23D07B681B687A68126852696C
:1036400022F080025A617B685B6D884A9A40FB6871
:103650009A607B68DB6C43F002027B68DA647B680B
:10366000042283F835207B68002283F834207B68AD
:103670009B6C002B03D07B689B6C78689847FB6839
:103680001A687B685B6D7A4901FA03F31340002BDB
:103690002AD07B681B681B6803F00203002B23D031
:1036A0007B681B687A681268126822F002021A604E
:1036B0007B685B6D6E4A9A40FB689A607B68DB6C46
:1036C00043F004027B68DA647B68042283F83520C7
:1036D0007B68002283F834207B689B6C002B03D02E
:1036E0007B689B6C78689847FB681A687B685B6DA1
:1036F000102101FA03F31340002B4CD07B681B68A8
:103700001B6803F00803002B45D07B681B681B680F
:1037100003F48023002B1DD07B685B6D10229A4040
:10372000FB689A607B681B681B6803F40023002B0E
:1037300004D17B68312283F8352024E07B681B6844
:103740001B6803F40023002B1DD07B68412283F803
:10375000352018E07B681B681B6803F48073002B1E
:1037600007D17B681B687A681268126822F0080229
:103770001A607B685B6D10229A40FB689A607B68D8
:10378000312283F835207B681B6C002B03D07B68CB
:103790001B6C78689847FB681A687B685B6D202112
:1037A00001FA03F31340002B5CD07B681B681B6895
:1037B00003F01003002B55D07B681B681B6803F4D3
:1037C0008023002B25D07B685B6D20229A40FB680C
:1037D0009A607B681B681B6803F40023002B08D1E8
:1037E0007B685B6C002B3DD07B685B6C786898478E
:1037F00038E07B681B681B6803F40023002B31D082
:103800007B68DB6B002B2DD07B68DB6B786898477F
:1038100028E07B681B681B6803F48073002B07D1CA
:103820007B681B687A681268126822F010021A60BE
:103830007B685B6D20229A40FB689A607B68DA6C3B
:103840007B68DA647B68112283F835207B6800226C
:1038500083F834207B68DB6B002B03D07B68DB6B49
:103860007868984700BF1037BD4680BD01008000D2
:103870000400800080B483B000AF78607B6893F868
:103880003530DBB218460C37BD465DF8047B704717
:1038900080B483B000AF78607B68DB6C18460C376F
:1038A000BD465DF8047B704780B485B000AFF8601A
:1038B000B9607A603B60FB681B68FA68126812683E
:1038C00022F480221A60FB681B683A685A60FB6821
:1038D0009B68402B08D1FB681B687A689A60FB687C
:1038E0001B68BA68DA6007E0FB681B68BA689A6010
:1038F000FB681B687A68DA6000BF1437BD465DF864
:10390000047B704780B485B000AF78607B681B682B
:10391000DBB2103B144AA2FB03231B09FB60134AD2
:10392000FB6813441B781A467B685A65FB68032BB7
:1039300009D97B681B6823F47F7323F003031A1DE6
:103940007B681A6507E07B681B6823F47F7323F0AC
:1039500003037A6813657B681B6D18461437BD46F0
:103960005DF8047B704700BFABAAAAAA6C6202088C
:1039700080B584B000AFF860B9607A603B60FB68E6
:1039800093F83430012B01D102233DE0FB68012282
:1039900083F83420FB681B681B6803F40023002BAA
:1039A00004D1FB68122283F835200AE0FB681B680B
:1039B0001B6803F40023002B03D0FB68222283F84A
:1039C0003520FB681B68FA681268126822F0010251
:1039D0001A60FB681B68FA681268126842F4802259
:1039E0001A60FB681B683A681A61BB697A68B96833
:1039F000F86800F09FF8FB681B68FA6812681268A4
:103A000042F001021A60002318461037BD4680BDFF
:103A100080B584B000AFF860B9607A603B60FB6845
:103A200093F83430012B01D1022365E0FB680122B9
:103A300083F83420FB681B681B6803F40023002B09
:103A400004D1FB68122283F835200AE0FB681B686A
:103A50001B6803F40023002B03D0FB68222283F8A9
:103A60003520FB681B68FA681268126822F00102B0
:103A70001A60FB681B68FA681268126842F48022B8
:103A80001A60FB681B683A681A61BB697A68B96892
:103A9000F86800F04FF8FB681B68FA681268126853
:103AA00042F010021A60FB681B68FA68126812681C
:103AB00042F008021A60FB681B68FA681268126814
:103AC00042F004021A60FB681B68FA6812685269C7
:103AD00042F080025A61FB681B68FA68126812683B
:103AE00042F002021A60FB681B68FA6812681268EA
:103AF00042F001021A60002318461037BD4680BD0F
:103B000080B485B000AFF860B9601346FB71FB79F3
:103B1000002B04D1FB681B68BA68DA6003E0FB681D
:103B20001B68BA681A61002318461437BD465DF851
:103B3000047B704780B485B000AFF860B9607A60EC
:103B40003B60FB681B683A685A60FB689B68402BC7
:103B500008D1FB681B687A689A60FB681B68BA68C2
:103B6000DA6007E0FB681B68BA689A60FB681B684C
:103B70007A68DA6000BF1437BD465DF8047B704791
:103B800080B586B000AFF860B960C7E900230123B3
:103B9000FB75234B1B7E012B01D102233BE0204B05
:103BA00001221A764CF2503000F0B8F90346FB754A
:103BB000FB7D002B2BD1FB68002B05D13B781946F0
:103BC000B86800F057FA16E0FB68012B05D13B8876
:103BD0001946B86800F02AFA0DE0FB68022B05D1FF
:103BE0003B681946B86800F0FFF904E0D7E9002304
:103BF000B86800F0D5F94CF2503000F08FF9034668
:103C0000FB75084A074B1B6923F001031361044B42
:103C100000221A76FB7D18461837BD4680BD00BFCE
:103C2000A8F20020003C024080B586B000AFF860EA
:103C3000B960C7E900230023FB75204B1B7E012BD5
:103C400001D1022335E01D4B01221A761C4A1C4B80
:103C50001B6943F080731361194A194B1B6943F0C8
:103C600000731361154B03221A70144ABB68536129
:103C7000FB68002B05D13B781946B86800F0FAF9CB
:103C800016E0FB68012B05D13B881946B86800F0A7
:103C9000CDF90DE0FB68022B05D13B681946B868E9
:103CA00000F0A2F904E0D7E90023B86800F078F941
:103CB000FB7D18461837BD4680BD00BFA8F2002026
:103CC000003C024080B582B000AF00237B604C4BCB
:103CD000DB6803F4F973B3F5F97F20D1494B1B7806
:103CE000DBB2012B07D1474BDB687B60454B4FF0C4
:103CF000FF32DA600BE0434B1B78DBB2022B03D1BF
:103D0000404B1B697B6002E03E4B5B697B6000F0CF
:103D1000D3F9786800F082F83A4B00221A70384BD9
:103D2000DB6803F00103002B4AD0354B0122DA6037
:103D3000344B1B78DBB2012B2DD1324B5B68013B3E
:103D4000304A53602F4B5B68002B15D02D4BDB683E
:103D50007B60786800F058F82A4BDB680133294A09
:103D6000D360284BDB687B60264B1B7ADBB219469D
:103D7000786800F037FC23E04FF0FF337B60214A86
:103D80007B68D3601F4B00221A7000F0D7FE786862
:103D900000F03AF814E01B4B1B78DBB2022B07D182
:103DA00000F0CCFE174B1B69184600F02DF804E01C
:103DB000144B5B69184600F027F8124B00221A706A
:103DC000104B1B78DBB2002B16D10D4A0C4B1B6934
:103DD00023F4004323F0FF031361094A084B1B69D6
:103DE00023F080731361064A054B1B6923F00073AF
:103DF0001361044B00221A7600BF0837BD4680BD10
:103E0000003C0240A8F2002080B483B000AF78608C
:103E100000BF0C37BD465DF8047B704780B483B0AB
:103E200000AF786000BF0C37BD465DF8047B70477B
:103E300080B400AF084B1B69002B07DA064B074A1A
:103E40005A60054B064A5A60002300E001231846D9
:103E5000BD465DF8047B7047003C02402301674586
:103E6000AB89EFCD80B400AF054A054B1B6943F029
:103E70000043136100231846BD465DF8047B70477C
:103E8000003C024080B400AF094B5B6903F00103C2
:103E9000002B07D0064B074A9A60054B064A9A60EA
:103EA000002300E001231846BD465DF8047B7047FF
:103EB000003C02403B2A19087F6E5D4C80B400AF85
:103EC000054A054B5B6943F0010353610023184623
:103ED000BD465DF8047B7047003C024080B500AFF2
:103EE000074A074B1B78DBB243F00203DBB21370C7
:103EF0004CF2503000F012F80346184680BD00BF67
:103F0000143C024080B400AF034BDB691846BD4649
:103F10005DF8047B704700BFA8F2002080B584B034
:103F200000AF78600023FB601B4B0022DA61FEF7D4
:103F3000B1FCF86010E07B68B3F1FF3F0CD07B6808
:103F4000002B07D0FEF7A6FC0246FB68D21A7B685E
:103F50009A4201D903231AE0104BDB6803F4803343
:103F6000002BE8D10D4BDB6803F00103002B02D0DE
:103F70000A4B0122DA60094BDB6803F4F973B3F5ED
:103F8000F97F03D100F098F8012300E000231846E0
:103F90001037BD4680BD00BFA8F20020003C0240A3
:103FA00090B484B000AFF860C7E900230D4A0D4B10
:103FB0001B6923F4407313610A4A0A4B1B6943F4DB
:103FC00040731361074A074B1B6943F001031361F8
:103FD000FA68D7E90034C2E9003400BF1037BD46A3
:103FE00090BC7047003C024080B483B000AF786062
:103FF00039600D4A0C4B1B6923F4407313610A4A64
:10400000094B1B6943F400731361074A064B1B6994
:1040100043F0010313617B683A681A6000BF0C37F4
:10402000BD465DF8047B7047003C024080B483B01D
:1040300000AF78600B467B800D4A0D4B1B6923F463
:10404000407313610A4A0A4B1B6943F4807313617E
:10405000074A074B1B6943F0010313617B687A88A9
:104060001A8000BF0C37BD465DF8047B704700BF67
:10407000003C024080B483B000AF78600B46FB7018
:104080000C4A0C4B1B6923F440731361094A094B1A
:104090001B691361074A074B1B6943F00103136156
:1040A0007B68FA781A7000BF0C37BD465DF8047B58
:1040B000704700BF003C024080B400AF2F4BDB686C
:1040C00003F01003002B08D02D4BDB6943F01003E5
:1040D0002B4AD361294B1022DA60284BDB6803F0AE
:1040E0002003002B08D0264BDB6943F00803244A49
:1040F000D361224B2022DA60204BDB6803F04003BF
:10410000002B08D01E4BDB6943F004031C4AD3612B
:104110001A4B4022DA60194BDB6803F08003002B56
:1041200008D0174BDB6943F00203154AD361134BE8
:104130008022DA60114BDB6803F48073002B09D016
:104140000F4BDB6943F001030D4AD3610B4B4FF476
:104150008072DA60094BDB6803F00203002B08D0A1
:10416000074BDB6943F02003054AD361034B02226E
:10417000DA6000BFBD465DF8047B7047003C02403A
:10418000A8F2002080B584B000AF786039600123C8
:10419000FB730023BB60324B1B7E012B01D102233A
:1041A0005AE02F4B01221A764CF25030FFF7B6FE40
:1041B0000346FB73FB7B002B4AD13B684FF0FF3279
:1041C0001A607B681B68012B17D17B681B69DAB208
:1041D0007B685B681946104600F0CAF94CF2503013
:1041E000FFF79CFE0346FB731E4A1E4B1B6923F41C
:1041F000004323F00403136128E07B689B68BB60E5
:104200001CE07B681B69DBB21946B86800F0EAF96C
:104210004CF25030FFF782FE0346FB73114A114BFC
:104220001B6923F0FA031361FB7B002B03D03B686F
:10423000BA681A600AE0BB680133BB607B68DA6861
:104240007B689B681A44BB689A42DAD800F076FC17
:10425000034B00221A76FB7B18461037BD4680BD03
:10426000A8F20020003C024080B584B000AF786026
:104270000023FB73254B1B7E012B01D1022340E061
:10428000224B01221A76224A214B1B6943F080738C
:1042900013611F4A1E4B1B6943F0007313611C4BD3
:1042A000F322DA607B681B68012B10D1174B0222C6
:1042B0001A707B685B68154A13617B681B69DAB208
:1042C0007B685B681946104600F052F918E00F4B06
:1042D00001221A707B68DB680C4A53607B689B681C
:1042E0000A4AD3607B681B69DAB2084B1A727B6892
:1042F0009A687B681B69DBB21946104600F072F9B8
:10430000FB7B18461037BD4680BD00BFA8F20020D9
:10431000003C024080B584B000AF78600123FB739D
:10432000324B1B7E012B01D102235BE02F4B01227C
:104330001A767B681B6803F00103002B18D07B689A
:104340005B68012B0AD17B689A687B68DB68194639
:10435000104600F09FF90346FB7309E07B689A68FA
:104360007B68DB681946104600F002FA0346FB73CF
:104370007B681B6803F00203002B07D07B681B6976
:10438000DBB2184600F026FB0346FB737B681B6814
:1043900003F00403002B13D07B681B7E03F0200383
:1043A000D8B27B681B7E03F04003D9B27B681B7ECA
:1043B00023F07F03DBB21A4600F026FB0346FB73B3
:1043C0007B681B6803F00803002B07D07B685B69E0
:1043D000DBB2184600F048FB0346FB73034B002298
:1043E0001A76FB7B18461037BD4680BDA8F2002028
:1043F00080B582B000AF78607B680F221A6000F051
:1044000061FB03461A467B689A6000F067FB03462F
:104410001A467B681A6100F045FB03461A467B6822
:104420001A7600F07BFB03461A467B685A6100BF90
:104430000837BD4680BD00BF80B584B000AF78604E
:104440000123FB737B681B6803F00103002B1ED064
:104450007B685B68012B0DD17B689B8918467B6864
:10446000DB8919467B689B681A4600F017FA0346F9
:10447000FB730CE07B689B8918467B68DB891946D7
:104480007B689B681A4600F057FA0346FB737B680B
:104490001B6803F00203002B06D07B681B7C1846C8
:1044A00000F0D4F90346FB73FB7B18461037BD467A
:1044B00080BD00BF80B483B000AF78600A4B1B881A
:1044C0009AB27B689A81094B1B889AB27B68DA8121
:1044D000074B1B78DAB27B681A7400BF0C37BD46F5
:1044E0005DF8047B704700BF163C02401A3C024056
:1044F000143C024080B483B000AFFF23FB71094B32
:104500001B78DBB203F07F03FB71064AFB7963F093
:104510007F03DBB21370002318460C37BD465DF8ED
:10452000047B7047173C024080B483B000AFFF2388
:10453000FB71084B1B78DBB203F07F03FB71054A6C
:10454000FB791370002318460C37BD465DF8047BD9
:10455000704700BF173C024080B400AF034B1B887C
:104560009BB21846BD465DF8047B70471A3C02407A
:1045700080B483B000AF03463960FB71184A184B12
:104580001B6923F4407313613B68032B08D1144A61
:10459000134B1B6943F4004343F0040313610FE022
:1045A0003B68012B06D10E4A0D4B1B6943F00403F7
:1045B000136105E00A4A0A4B1B6943F40043136187
:1045C0000749074B1A69FB791B02134343F48033F5
:1045D0000B6100BF0C37BD465DF8047B704700BF20
:1045E000003C024080B487B000AF78600B46FB709F
:1045F00000237B61FB78002B02D100237B6110E05C
:10460000FB78012B03D14FF480737B6109E0FB78C9
:10461000022B03D14FF400737B6102E04FF440732F
:104620007B617B680B2B02D97B6804337B60184A63
:10463000174B1B6923F4407313611549144B1A6916
:104640007B6913430B61124A114B1B6923F0F8037A
:104650001361F8233B613B6993FAA3F3FB60FB68AA
:10466000B3FA83F37A6802FA03F343F002030849CA
:10467000074A126913430B61054A054B1B6943F452
:104680008033136100BF1C37BD465DF8047B704763
:10469000003C024080B584B000AF786039600023F0
:1046A000FB734CF25030FFF739FC0346FB73FB7B86
:1046B000002B52D17B682B4A934205D13B68012BDA
:1046C00006D03B68032B03D07B68B3F5805F1CD218
:1046D0007B68244A93420CD12349234B1B889AB20E
:1046E0007B681B0B9BB2DB439BB213409BB20B80DE
:1046F00017E01D491C4B1B889AB27B689BB2DB43B9
:104700009BB213409BB20B800BE01849174B1B88E0
:104710009AB27B681B0B9BB2DB439BB213409BB2EC
:104720000B807B680F4A934217D13B68032B14D14F
:104730004CF25030FFF7F2FB0346FB73FB7B002B80
:104740000BD10A49094B1B889AB27B681B0B9BB2A1
:10475000DB439BB213409BB20B80FB7B18461037A8
:10476000BD4680BD00F0FF00163C02401A3C0240EE
:1047700080B584B000AF786039600023FB734CF2E1
:104780005030FFF7CBFB0346FB73FB7B002B52D172
:104790007B682B4A934205D13B68012B06D03B68CE
:1047A000032B03D07B68B3F5805F1CD27B68244A5F
:1047B00093420CD12349234B1B889BB21AB27B68CE
:1047C0001B0B1BB213431BB29BB20B8017E01D499E
:1047D0001C4B1B889BB21AB27B681BB213431BB2E3
:1047E0009BB20B800BE01849174B1B889BB21AB287
:1047F0007B681B0B1BB213431BB29BB20B807B6805
:104800000F4A934217D13B68032B14D14CF250301E
:10481000FFF784FB0346FB73FB7B002B0BD10A499C
:10482000094B1B889BB21AB27B681B0B1BB213434C
:104830001BB29BB20B80FB7B18461037BD4680BD78
:1048400000F0FF00163C02401A3C024080B584B0E4
:1048500000AF0346FB710023FB734CF25030FFF7AF
:104860005DFB0346FB73FB7B002B0FD10A4A0A4B0F
:104870001B78DBB223F01003DBB213700649064B42
:104880001B78DAB2FB791343DBB20B70FB7B184663
:104890001037BD4680BD00BF143C024080B586B0D5
:1048A00000AFF860B9607A600023FB754CF25030BD
:1048B000FFF734FB0346FB75FB7D002B33D17B6890
:1048C000012B02D07B68032B0BD11949184B1B8895
:1048D0009BB21AB2FB681BB213431BB29BB20B8094
:1048E0000AE01449134B1B889BB21AB2BB681BB277
:1048F00013431BB29BB20B807B68032B13D14CF28A
:104900005030FFF70BFB0346FB75FB7D002B0AD1F4
:104910000849084B1B889BB21AB2BB681BB21343F1
:104920001BB29BB20B80FB7D18461837BD4680BD7D
:10493000163C02401A3C024080B586B000AFF860D9
:10494000B9607A600023FB754CF25030FFF7E6FA4D
:104950000346FB75FB7D002B33D17B68012B02D016
:104960007B68032B0BD11949184B1B889AB2FB6843
:104970009BB2DB439BB213409BB20B800AE014490D
:10498000134B1B889AB2BB689BB2DB439BB21340AC
:104990009BB20B807B68032B13D14CF25030FFF796
:1049A000BDFA0346FB75FB7D002B0AD10849084B75
:1049B0001B889AB2BB689BB2DB439BB213409BB28D
:1049C0000B80FB7D18461837BD4680BD163C024063
:1049D0001A3C024080B584B000AF0346FB7100234F
:1049E000FB734CF25030FFF799FA0346FB73FB7BE5
:1049F000002B02D1034AFB791370FB7B184610375A
:104A0000BD4680BD153C024080B584B000AF034672
:104A1000FB710B46BB7113467B71FF23FB730023B5
:104A2000BB734CF25030FFF779FA0346BB73BB7B84
:104A3000002B11D10B4B1B78DBB203F01F03FB7370
:104A40000849BA79FB7B1343DAB27B791343DAB2B4
:104A5000FB791343DBB20B70BB7B18461037BD46A6
:104A600080BD00BF143C024080B483B000AF034659
:104A7000FB710B4A0A4B1B78DBB223F00C03DBB251
:104A800013700749064B1B78DAB2FB791343DBB28C
:104A90000B70002318460C37BD465DF8047B704749
:104AA000143C024080B400AF054B5B69DBB223F0DD
:104AB0001F03DBB21846BD465DF8047B704700BF9C
:104AC000003C024080B400AF034B1B889BB21846E9
:104AD000BD465DF8047B7047163C024080B483B04D
:104AE00000AFAA23FB710C4B1B78DBB2CC2B02D19D
:104AF000CC23FB7109E0084B1B78DBB2552B02D1AC
:104B00005523FB7101E0AA23FB71FB7918460C3792
:104B1000BD465DF8047B7047153C024080B400AF91
:104B2000054B1B78DBB203F00C03DBB21846BD4625
:104B30005DF8047B704700BF143C024080B400AFB6
:104B4000204B1B6803F40073002B17D01D4A1D4B2C
:104B50001B6823F4007313601A4A1A4B1B6843F452
:104B600000631360174A174B1B6823F4006313603C
:104B7000144A144B1B6843F400731360114B1B68F9
:104B800003F48063002B17D00E4A0E4B1B6823F4EE
:104B9000806313600B4A0B4B1B6843F48053136014
:104BA000084A084B1B6823F480531360054A054BE1
:104BB0001B6843F48063136000BFBD465DF8047B4F
:104BC000704700BF003C024080B489B000AF7860FD
:104BD000396000237B6100233B610023BB6100231C
:104BE000FB6177E10122FB6902FA03F37B613B6819
:104BF0001A687B6913403B613A697B699A4240F0CD
:104C000066813B685B68022B03D03B685B68122BB4
:104C100023D1FB69DA087B68083253F82230BB6184
:104C2000FB6903F007039B000F2202FA03F3DB4347
:104C3000BA691340BB613B681A69FB6903F007035B
:104C40009B0002FA03F3BA691343BB61FB69DA08FC
:104C50007B680832B96943F822107B681B68BB6126
:104C6000FB695B00032202FA03F3DB43BA691340DA
:104C7000BB613B685B6803F00302FB695B0002FAFF
:104C800003F3BA691343BB617B68BA691A603B6876
:104C90005B68012B0BD03B685B68022B07D03B683D
:104CA0005B68112B03D03B685B68122B30D17B68AB
:104CB0009B68BB61FB695B00032202FA03F3DB43E1
:104CC000BA691340BB613B68DA68FB695B0002FAB2
:104CD00003F3BA691343BB617B68BA699A607B6866
:104CE0005B68BB610122FB6902FA03F3DB43BA692B
:104CF0001340BB613B685B681B0903F00102FB6961
:104D000002FA03F3BA691343BB617B68BA695A605C
:104D10007B68DB68BB61FB695B00032202FA03F37B
:104D2000DB43BA691340BB613B689A68FB695B006F
:104D300002FA03F3BA691343BB617B68BA69DA60AC
:104D40003B685B6803F08053002B00F0C0800023B9
:104D5000FB60654A644B5B6C43F480435364624B75
:104D60005B6C03F48043FB60FB68604AFB699B0853
:104D7000023352F82330BB61FB6903F003039B004D
:104D80000F2202FA03F3DB43BA691340BB617B686D
:104D9000574A934237D07B68564A934231D07B685A
:104DA000554A93422BD07B68544A934225D07B6866
:104DB000534A93421FD07B68524A934219D07B6872
:104DC000514A934213D07B68504A93420DD07B687E
:104DD0004F4A934207D07B684E4A934201D1092340
:104DE00012E00A2310E008230EE007230CE006235C
:104DF0000AE0052308E0042306E0032304E002237D
:104E000002E0012300E00023FA6902F003029200AD
:104E10009340BA691343BB613449FB699B08023371
:104E2000BA6941F823203C4B1B68BB613B69DB43FB
:104E3000BA691340BB613B685B6803F48033002BA5
:104E400003D0BA693B691343BB61334ABB69136042
:104E5000314B5B68BB613B69DB43BA691340BB61A3
:104E60003B685B6803F40033002B03D0BA693B69ED
:104E70001343BB61284ABB695360274B9B68BB61E6
:104E80003B69DB43BA691340BB613B685B6803F471
:104E90008013002B03D0BA693B691343BB611E4AE0
:104EA000BB6993601C4BDB68BB613B69DB43BA6940
:104EB0001340BB613B685B6803F40013002B03D015
:104EC000BA693B691343BB61134ABB69D360FB6991
:104ED0000133FB61FB690F2B7FF684AE00BF2437E3
:104EE000BD465DF8047B7047003802400038014041
:104EF000000002400004024000080240000C024092
:104F0000001002400014024000180240001C024041
:104F10000020024000240240003C014080B487B0E1
:104F200000AF7860396000233B610023FB60002301
:104F3000BB6000237B61DAE001227B6902FA03F3A4
:104F40003B613A683B691340FB60FA683B699A42EF
:104F500040F0CA807B681A687B695B00032101FA14
:104F600003F3DB431A407B681A607B69DA087B69CC
:104F7000D9087B68083153F821107B6903F00703D7
:104F80009B000F2000FA03F3DB4319407B680832D3
:104F900043F822107B689A687B695B00032101FA61
:104FA00003F3DB431A407B689A607B685A680121EF
:104FB0007B6901FA03F3DB431A407B685A607B6824
:104FC000DA687B695B00032101FA03F3DB431A40D3
:104FD0007B68DA604B4A7B699B08023352F82330C6
:104FE000BB607B6903F003039B000F2202FA03F30B
:104FF000BA681340BB607B68434A934237D07B68F2
:10500000424A934231D07B68414A93422BD07B681D
:10501000404A934225D07B683F4A93421FD07B6829
:105020003E4A934219D07B683D4A934213D07B6835
:105030003C4A93420DD07B683B4A934207D07B6841
:105040003A4A934201D1092312E00A2310E00823CF
:105050000EE007230CE006230AE0052308E0042302
:1050600006E0032304E0022302E0012300E0002322
:105070007A6902F00302920003FA02F2BB689A42D4
:1050800032D17B6903F003039B000F2202FA03F382
:10509000BB601C487B699B081A497A6992080232F6
:1050A00051F82210BA68D2430A40023340F8232054
:1050B0001F491F4B1A68FB68DB4313400B601C49F8
:1050C0001B4B5A68FB68DB4313404B601849184B75
:1050D0009A68FB68DB4313408B601549144BDA6810
:1050E000FB68DB431340CB607B6901337B617B69E9
:1050F0000F2B7FF621AF00BF1C37BD465DF8047B48
:10510000704700BF00380140000002400004024028
:1051100000080240000C024000100240001402404F
:1051200000180240001C02400020024000240240FF
:10513000003C014080B485B000AF78600B467B80B6
:105140007B681A697B881340002B02D00123FB7314
:1051500001E00023FB73FB7B18461437BD465DF866
:10516000047B704780B483B000AF78600B467B80CF
:1051700013467B707B78002B03D07A887B689A611A
:1051800003E07B881A047B689A6100BF0C37BD4638
:105190005DF8047B704700BF80B483B000AF7860D7
:1051A0000B467B807B685A697B885A407B685A61D2
:1051B00000BF0C37BD465DF8047B704780B485B0F6
:1051C00000AF78600B467B804FF48033FB607A88B9
:1051D000FB681343FB60FA687B68DA617A887B6856
:1051E000DA61FA687B68DA617B68DB69FB607B689F
:1051F000DB6903F48033002B01D0002300E001239E
:1052000018461437BD465DF8047B704780B582B000
:1052100000AF0346FB80084B5A69FB881340002B04
:1052200006D0054AFB885361FB88184600F006F853
:1052300000BF0837BD4680BD003C014080B483B04C
:1052400000AF0346FB8000BF0C37BD465DF8047B12
:10525000704700BF80B584B000AF78600023FB606A
:105260000023BB607B68002B01D10123C8E07B6871
:1052700093F83D30DBB2002B06D17B68002283F827
:105280003C207868FBF7D4FC7B68242283F83D201F
:105290007B681B687A681268126822F001021A6043
:1052A00007F0BAFBB860BB68574AA2FB03239B0C0C
:1052B000FB607B681B68FA685A607B681A687B68C9
:1052C0005B6852498B4202D8FB68013309E0FB68F6
:1052D0004FF4967101FB03F34D49A1FB03139B09A6
:1052E000013313627B6819687B685B68474A9342A5
:1052F00012D87B685B685B00BA68B2FBF3F3C3F358
:105300000B03032B06D97B685B685B00BA68B2FBB2
:10531000F3F345E0042343E07B689B68002B0FD147
:105320007B685A6813465B001344BA68B2FBF3F318
:10533000C3F30B03002B0CBF01230023DBB210E0EF
:105340007B685A6813469B0013449A001344BA685A
:10535000B2FBF3F3C3F30B03002B0CBF01230023B9
:10536000DBB2002B01D001231AE07B689B68002B85
:105370000AD17B685A6813465B001344BA68B2FBD3
:10538000F3F343F400430BE07B685A6813469B0039
:1053900013449A001344BA68B2FBF3F343F4404356
:1053A000CB617B681B687A68D1697A68126A0A43A4
:1053B0001A607B681B687A6811697A68D2680A4348
:1053C0009A607B681B687A6851697A6892690A43B7
:1053D000DA607B681B687A681268126842F0010222
:1053E0001A607B6800221A647B68202283F83D20C3
:1053F0007B6800221A637B68002283F83E2000232A
:1054000018461037BD4680BD83DE1B43A0860100D1
:10541000D34D621080B582B000AF78607B68002BFE
:1054200001D1012321E07B68242283F83D207B68A1
:105430001B687A681268126822F001021A607868A4
:10544000FBF750FC7B6800221A647B68002283F81B
:105450003D207B6800221A637B68002283F83E208F
:105460007B68002283F83C20002318460837BD469D
:1054700080BD00BF80B483B000AF786000BF0C3740
:10548000BD465DF8047B704780B483B000AF7860A0
:1054900000BF0C37BD465DF8047B704780B586B011
:1054A00000AFF8607A601A460B467B8113463B8159
:1054B000FB6893F83D30DBB2202B40F0B78042F21E
:1054C000107301225C49F86803F09AFF0346002B31
:1054D00001D00223ABE0FB6893F83C30012B01D1F3
:1054E0000223A4E0FB68012283F83C20FB681B68D0
:1054F000FA681268126822F400621A60FB682122BE
:1055000083F83D20FB68102283F83E20FB680022D0
:105510001A64FB68494ADA627B893A6A1946F86874
:1055200003F0F2FA0346002B0FD0FB681B6C042B30
:1055300005D1FB68002283F83C20012377E0FB685B
:10554000002283F83C20032371E000237B61FB6889
:105550001B685B697B61FB681B689B697B617B697E
:105560004BE0396AF86804F04DF80346002B0FD081
:10557000FB681B6C042B09D1FB681B68FA68126876
:10558000126842F400721A60012350E003234EE0D7
:10559000FB681A687B68591C79601B7813613B892A
:1055A000013B3B81FB681B685B6903F00403002B34
:1055B0000CD03B89002B09D0FB681A687B68591C0A
:1055C00079601B7813613B89013B3B81396AF8683C
:1055D00004F058F80346002B0FD0FB681B6C042B1B
:1055E00009D1FB681B68FA681268126842F40072FD
:1055F0001A6001231BE0032319E03B89002BB0D183
:10560000FB681B68FA681268126842F400721A603C
:10561000FB68202283F83D20FB68002283F83E20AF
:10562000FB68002283F83C20002300E00223184698
:105630001837BD4680BD00BF020010000000FFFF0C
:1056400080B588B000AFF8607A601A460B467B815F
:1056500013463B81FB6893F83D30DBB2202B40F0D2
:105660008A8142F2107301229149F86803F0C8FE62
:105670000346002B01D002237EE1FB6893F83C3007
:10568000012B01D1022377E1FB68012283F83C2042
:10569000FB681B68FA681268126822F400621A60DC
:1056A000FB68222283F83D20FB68102283F83E200D
:1056B000FB6800221A64FB687E4ADA627B89BA6A58
:1056C0001946F86803F09EFA0346002B0FD0FB68DA
:1056D0001B6C042B05D1FB68002283F83C200123BE
:1056E0004AE1FB68002283F83C20032344E13B8924
:1056F000002B13D10023FB61FB681B685B69FB6116
:10570000FB681B689B69FB61FB69FB681B68FA68A7
:105710001268126842F400721A601AE13B89012B88
:105720001BD1FB681B68FA681268126822F4806259
:105730001A600023BB61FB681B685B69BB61FB6887
:105740001B689B69BB61BB69FB681B68FA681268D0
:10575000126842F400721A60FBE03B89022B1BD1F5
:10576000FB681B68FA681268126822F480621A608B
:10577000FB681B68FA681268126842F400621A60DB
:1057800000237B61FB681B685B697B61FB681B68AE
:105790009B697B617B69DCE0FB681B68FA681268C7
:1057A000126842F480621A6000233B61FB681B6848
:1057B0005B693B61FB681B689B693B613B69C8E0B7
:1057C0003B89032B00F299803B89012B1AD1B96ADE
:1057D000F86803F0D5FF0346002B07D0FB681B6C6D
:1057E000202B01D10323C7E00123C5E07B685A1CAD
:1057F0007A60FA6812681269D2B21A703B89013B6A
:105800003B81A6E03B89022B29D1BB6A00222A49B1
:10581000F86803F0F5FD0346002B01D00323ABE04D
:10582000FB681B68FA681268126842F400721A601A
:105830007B685A1C7A60FA6812681269D2B21A70D0
:105840003B89013B3B817B685A1C7A60FA6812688D
:105850001269D2B21A703B89013B3B8179E0BB6A85
:1058600000221549F86803F0CBFD0346002B01D058
:10587000032381E0FB681B68FA681268126822F44F
:1058800080621A607B685A1C7A60FA681268126932
:10589000D2B21A703B89013B3B81BB6A00220649A8
:1058A000F86803F0ADFD0346002B07D0032363E047
:1058B000020010000000FFFF04000100FB681B68ED
:1058C000FA681268126842F400721A607B685A1C07
:1058D0007A60FA6812681269D2B21A703B89013B89
:1058E0003B817B685A1C7A60FA6812681269D2B2EE
:1058F0001A703B89013B3B812BE0B96AF86803F0E1
:105900003FFF0346002B07D0FB681B6C202B01D107
:10591000032331E001232FE07B685A1C7A60FA6888
:1059200012681269D2B21A703B89013B3B81FB6855
:105930001B685B6903F00403002B0AD07B685A1CC8
:105940007A60FA6812681269D2B21A703B89013B18
:105950003B813B89002B7FF433AFFB68202283F827
:105960003D20FB68002283F83E20FB68002283F87C
:105970003C20002300E0022318462037BD4680BDAE
:1059800080B586B000AFF860B9603B601346FB801D
:10599000FB6893F83D30DBB2202B40F0CE80BB6833
:1059A000002B02D0FB88002B01D10123C6E042F27C
:1059B000107301226349F86803F022FD0346002BAF
:1059C00001D00223BAE0FB6893F83C30012B01D1EF
:1059D0000223B3E0FB68012283F83C20FB681B68CC
:1059E000FA681268126822F400621A60FB682122C9
:1059F00083F83D20FB68202283F83E20FB680022CC
:105A00001A64FB68504ADA62FB681B68FA6812681D
:105A1000126842F480621A603B6800224B49F868C1
:105A200003F0EEFC0346002B01D0032386E00023A5
:105A30007B61FB681B685B697B61FB681B689B691A
:105A40007B617B69FB681B69B3F5404F4BD13B68B9
:105A500000223E49F86803F0D3FC0346002B01D036
:105A600003236BE000233B61FB681B685B693B61C0
:105A7000FB681B689B693B613B6934E03968F868E7
:105A800003F0C0FD0346002B0FD0FB681B68FA68CB
:105A90001268126822F480621A60FB681B6C042B87
:105AA00001D101234AE0032348E0FB681A68BB6880
:105AB000591CB9601B781361FB88013BFB80FB68B4
:105AC0001B685B6903F00403002B0CD0FB88002BE0
:105AD00009D0FB681A68BB68591CB9601B78136150
:105AE000FB88013BFB80FB88002BC7D13B68002271
:105AF0004FF48231F86803F083FC0346002B01D099
:105B000003231BE0FB681B686FF480625A61FB682B
